{
  "address": "0xeEC15Bd2346DD7b570F71161934f1f8735Bb1999",
  "abi": [
    {
      "inputs": [],
      "stateMutability": "nonpayable",
      "type": "constructor"
    },
    {
      "inputs": [
        {
          "internalType": "address",
          "name": "requester",
          "type": "address"
        }
      ],
      "name": "NotIssuer",
      "type": "error"
    },
    {
      "inputs": [
        {
          "internalType": "address",
          "name": "requester",
          "type": "address"
        }
      ],
      "name": "NotOwner",
      "type": "error"
    },
    {
      "anonymous": false,
      "inputs": [
        {
          "indexed": false,
          "internalType": "address",
          "name": "requester",
          "type": "address"
        },
        {
          "indexed": false,
          "internalType": "address",
          "name": "approver",
          "type": "address"
        }
      ],
      "name": "RequestSubmitted",
      "type": "event"
    },
    {
      "anonymous": false,
      "inputs": [
        {
          "indexed": false,
          "internalType": "address",
          "name": "requester",
          "type": "address"
        },
        {
          "indexed": false,
          "internalType": "string",
          "name": "rH",
          "type": "string"
        }
      ],
      "name": "UpdatedInformationEvent",
      "type": "event"
    },
    {
      "inputs": [
        {
          "internalType": "address",
          "name": "_approver",
          "type": "address"
        }
      ],
      "name": "approveRequest",
      "outputs": [],
      "stateMutability": "nonpayable",
      "type": "function"
    },
    {
      "inputs": [
        {
          "internalType": "address",
          "name": "_requester",
          "type": "address"
        }
      ],
      "name": "assignIssuer",
      "outputs": [],
      "stateMutability": "nonpayable",
      "type": "function"
    },
    {
      "inputs": [
        {
          "internalType": "address",
          "name": "_approver",
          "type": "address"
        }
      ],
      "name": "declineRequest",
      "outputs": [],
      "stateMutability": "nonpayable",
      "type": "function"
    },
    {
      "inputs": [
        {
          "internalType": "address",
          "name": "_approver",
          "type": "address"
        }
      ],
      "name": "getRequestHistory",
      "outputs": [
        {
          "components": [
            {
              "internalType": "address",
              "name": "requester",
              "type": "address"
            },
            {
              "internalType": "bytes32",
              "name": "property",
              "type": "bytes32"
            },
            {
              "internalType": "bytes32",
              "name": "val",
              "type": "bytes32"
            },
            {
              "internalType": "bytes32",
              "name": "currentVal",
              "type": "bytes32"
            }
          ],
          "internalType": "struct Issuer.Details[]",
          "name": "",
          "type": "tuple[]"
        }
      ],
      "stateMutability": "view",
      "type": "function"
    },
    {
      "inputs": [
        {
          "internalType": "address",
          "name": "_address",
          "type": "address"
        }
      ],
      "name": "getRole",
      "outputs": [
        {
          "internalType": "enum DIdentity.Roles",
          "name": "",
          "type": "uint8"
        }
      ],
      "stateMutability": "view",
      "type": "function"
    },
    {
      "inputs": [
        {
          "internalType": "address",
          "name": "_user",
          "type": "address"
        }
      ],
      "name": "getRootHash",
      "outputs": [
        {
          "internalType": "string",
          "name": "",
          "type": "string"
        }
      ],
      "stateMutability": "view",
      "type": "function"
    },
    {
      "inputs": [],
      "name": "getRootHash",
      "outputs": [
        {
          "internalType": "string",
          "name": "",
          "type": "string"
        }
      ],
      "stateMutability": "view",
      "type": "function"
    },
    {
      "inputs": [],
      "name": "owner",
      "outputs": [
        {
          "internalType": "address",
          "name": "",
          "type": "address"
        }
      ],
      "stateMutability": "view",
      "type": "function"
    },
    {
      "inputs": [
        {
          "internalType": "address",
          "name": "",
          "type": "address"
        }
      ],
      "name": "roles",
      "outputs": [
        {
          "internalType": "enum DIdentity.Roles",
          "name": "",
          "type": "uint8"
        }
      ],
      "stateMutability": "view",
      "type": "function"
    },
    {
      "inputs": [
        {
          "internalType": "address",
          "name": "_requester",
          "type": "address"
        },
        {
          "internalType": "address",
          "name": "_approver",
          "type": "address"
        },
        {
          "internalType": "bytes32",
          "name": "_currentVal",
          "type": "bytes32"
        },
        {
          "internalType": "bytes32",
          "name": "_property",
          "type": "bytes32"
        },
        {
          "internalType": "bytes32",
          "name": "_val",
          "type": "bytes32"
        }
      ],
      "name": "updateDetails",
      "outputs": [],
      "stateMutability": "nonpayable",
      "type": "function"
    },
    {
      "inputs": [
        {
          "internalType": "address",
          "name": "_requester",
          "type": "address"
        },
        {
          "internalType": "string",
          "name": "_rootHash",
          "type": "string"
        }
      ],
      "name": "updateRootHash",
      "outputs": [],
      "stateMutability": "nonpayable",
      "type": "function"
    }
  ],
  "transactionHash": "0x5ee72ee6f9fbbeb63b33be05251bc826c2df16ac8d8de3cfd56cf6a1a05e40ab",
  "args": [],
  "numDeployments": 3,
  "solcInputHash": "1bbe521d4d5dc9608933ec28b259c475",
  "bytecode": "0x608060405234801561001057600080fd5b50336000806101000a81548173ffffffffffffffffffffffffffffffffffffffff021916908373ffffffffffffffffffffffffffffffffffffffff1602179055506124d1806100606000396000f3fe60806040523480156200001157600080fd5b5060043610620000b85760003560e01c80637917c6c9116200007b5780637917c6c9146200018957806380759f1f14620001a95780638da5cb5b14620001cb5780639937464214620001ed578063b47055001462000223578063cd6f1d96146200024357620000b8565b8063061dff9a14620000bd5780631ea5a1f814620000dd5780634427673314620000fd578063617d4a4e14620001335780636cd510741462000153575b600080fd5b620000db6004803603810190620000d5919062001130565b62000279565b005b620000fb6004803603810190620000f5919062001130565b6200041d565b005b6200011b600480360381019062000115919062001130565b620005c1565b6040516200012a919062001587565b60405180910390f35b6200015160048036038101906200014b9190620011ea565b62000617565b005b6200017160048036038101906200016b919062001130565b62000769565b604051620001809190620015a4565b60405180910390f35b620001a76004803603810190620001a1919062001130565b62000934565b005b620001b362000bf3565b604051620001c29190620015a4565b60405180910390f35b620001d562000c05565b604051620001e4919062001498565b60405180910390f35b6200020b600480360381019062000205919062001130565b62000c29565b6040516200021a919062001587565b60405180910390f35b6200024160048036038101906200023b919062001162565b62000c49565b005b6200026160048036038101906200025b919062001130565b62000d5f565b60405162000270919062001563565b60405180910390f35b6001808111156200028f576200028e62001813565b5b600160003373ffffffffffffffffffffffffffffffffffffffff1673ffffffffffffffffffffffffffffffffffffffff16815260200190815260200160002060009054906101000a900460ff166001811115620002f157620002f062001813565b5b146200033657336040517f3fd26f9e0000000000000000000000000000000000000000000000000000000081526004016200032d919062001498565b60405180910390fd5b600360008273ffffffffffffffffffffffffffffffffffffffff1673ffffffffffffffffffffffffffffffffffffffff16815260200190815260200160002060009054906101000a900473ffffffffffffffffffffffffffffffffffffffff1673ffffffffffffffffffffffffffffffffffffffff1663263b81c96040518163ffffffff1660e01b8152600401602060405180830381600087803b158015620003de57600080fd5b505af1158015620003f3573d6000803e3d6000fd5b505050506040513d601f19601f82011682018060405250810190620004199190620012a1565b5050565b60018081111562000433576200043262001813565b5b600160003373ffffffffffffffffffffffffffffffffffffffff1673ffffffffffffffffffffffffffffffffffffffff16815260200190815260200160002060009054906101000a900460ff16600181111562000495576200049462001813565b5b14620004da57336040517f3fd26f9e000000000000000000000000000000000000000000000000000000008152600401620004d1919062001498565b60405180910390fd5b600360008273ffffffffffffffffffffffffffffffffffffffff1673ffffffffffffffffffffffffffffffffffffffff16815260200190815260200160002060009054906101000a900473ffffffffffffffffffffffffffffffffffffffff1673ffffffffffffffffffffffffffffffffffffffff1663873aaadc6040518163ffffffff1660e01b8152600401602060405180830381600087803b1580156200058257600080fd5b505af115801562000597573d6000803e3d6000fd5b505050506040513d601f19601f82011682018060405250810190620005bd9190620012a1565b5050565b6000600160008373ffffffffffffffffffffffffffffffffffffffff1673ffffffffffffffffffffffffffffffffffffffff16815260200190815260200160002060009054906101000a900460ff169050919050565b6001808111156200062d576200062c62001813565b5b600160003373ffffffffffffffffffffffffffffffffffffffff1673ffffffffffffffffffffffffffffffffffffffff16815260200190815260200160002060009054906101000a900460ff1660018111156200068f576200068e62001813565b5b14620006d457336040517f3fd26f9e000000000000000000000000000000000000000000000000000000008152600401620006cb919062001498565b60405180910390fd5b80600260008473ffffffffffffffffffffffffffffffffffffffff1673ffffffffffffffffffffffffffffffffffffffff16815260200190815260200160002090805190602001906200072992919062000e4e565b507fcbf361f75b5f1e09d4167f7dbb96c83dd6bdc24f7a2d232537f95c7b9fba452382826040516200075d9291906200152f565b60405180910390a15050565b60608173ffffffffffffffffffffffffffffffffffffffff163373ffffffffffffffffffffffffffffffffffffffff1614806200081b5750600180811115620007b757620007b662001813565b5b600160003373ffffffffffffffffffffffffffffffffffffffff1673ffffffffffffffffffffffffffffffffffffffff16815260200190815260200160002060009054906101000a900460ff16600181111562000819576200081862001813565b5b145b6200085d576040517f08c379a00000000000000000000000000000000000000000000000000000000081526004016200085490620015c8565b60405180910390fd5b600260008373ffffffffffffffffffffffffffffffffffffffff1673ffffffffffffffffffffffffffffffffffffffff1681526020019081526020016000208054620008a990620017a7565b80601f0160208091040260200160405190810160405280929190818152602001828054620008d790620017a7565b8015620009285780601f10620008fc5761010080835404028352916020019162000928565b820191906000526020600020905b8154815290600101906020018083116200090a57829003601f168201915b50505050509050919050565b60008054906101000a900473ffffffffffffffffffffffffffffffffffffffff1673ffffffffffffffffffffffffffffffffffffffff163373ffffffffffffffffffffffffffffffffffffffff1614620009c757336040517f245aecd3000000000000000000000000000000000000000000000000000000008152600401620009be919062001498565b60405180910390fd5b600073ffffffffffffffffffffffffffffffffffffffff168173ffffffffffffffffffffffffffffffffffffffff16141562000a3a576040517f08c379a000000000000000000000000000000000000000000000000000000000815260040162000a3190620015ea565b60405180910390fd5b600073ffffffffffffffffffffffffffffffffffffffff16600360008373ffffffffffffffffffffffffffffffffffffffff1673ffffffffffffffffffffffffffffffffffffffff16815260200190815260200160002060009054906101000a900473ffffffffffffffffffffffffffffffffffffffff1673ffffffffffffffffffffffffffffffffffffffff16141562000b86578060405162000ade9062000edf565b62000aea919062001498565b604051809103906000f08015801562000b07573d6000803e3d6000fd5b50600360008373ffffffffffffffffffffffffffffffffffffffff1673ffffffffffffffffffffffffffffffffffffffff16815260200190815260200160002060006101000a81548173ffffffffffffffffffffffffffffffffffffffff021916908373ffffffffffffffffffffffffffffffffffffffff1602179055505b60018060008373ffffffffffffffffffffffffffffffffffffffff1673ffffffffffffffffffffffffffffffffffffffff16815260200190815260200160002060006101000a81548160ff0219169083600181111562000beb5762000bea62001813565b5b021790555050565b606062000c003362000769565b905090565b60008054906101000a900473ffffffffffffffffffffffffffffffffffffffff1681565b60016020528060005260406000206000915054906101000a900460ff1681565b600360008573ffffffffffffffffffffffffffffffffffffffff1673ffffffffffffffffffffffffffffffffffffffff16815260200190815260200160002060009054906101000a900473ffffffffffffffffffffffffffffffffffffffff1673ffffffffffffffffffffffffffffffffffffffff1663cd9d0579868484876040518563ffffffff1660e01b815260040162000ce99493929190620014e2565b600060405180830381600087803b15801562000d0457600080fd5b505af115801562000d19573d6000803e3d6000fd5b505050507f1ec2b367327315f370e9b4f9a9bce05aeba3958b0ace3ceaa33c16d01830dd3b858560405162000d50929190620014b5565b60405180910390a15050505050565b6060600360008373ffffffffffffffffffffffffffffffffffffffff1673ffffffffffffffffffffffffffffffffffffffff16815260200190815260200160002060009054906101000a900473ffffffffffffffffffffffffffffffffffffffff1673ffffffffffffffffffffffffffffffffffffffff1663aaa86b086040518163ffffffff1660e01b815260040160006040518083038186803b15801562000e0757600080fd5b505afa15801562000e1c573d6000803e3d6000fd5b505050506040513d6000823e3d601f19601f8201168201806040525081019062000e47919062001250565b9050919050565b82805462000e5c90620017a7565b90600052602060002090601f01602090048101928262000e80576000855562000ecc565b82601f1062000e9b57805160ff191683800117855562000ecc565b8280016001018555821562000ecc579182015b8281111562000ecb57825182559160200191906001019062000eae565b5b50905062000edb919062000eed565b5090565b610b15806200198783390190565b5b8082111562000f0857600081600090555060010162000eee565b5090565b600062000f2362000f1d8462001635565b6200160c565b9050808382526020820190508285608086028201111562000f495762000f48620018aa565b5b60005b8581101562000f7d578162000f628882620010ab565b84526020840193506080830192505060018101905062000f4c565b5050509392505050565b600062000f9e62000f988462001664565b6200160c565b90508281526020810184848401111562000fbd5762000fbc620018af565b5b62000fca84828562001762565b509392505050565b60008135905062000fe38162001938565b92915050565b60008151905062000ffa8162001938565b92915050565b600082601f830112620010185762001017620018a0565b5b81516200102a84826020860162000f0c565b91505092915050565b600081519050620010448162001952565b92915050565b6000813590506200105b816200196c565b92915050565b60008151905062001072816200196c565b92915050565b600082601f83011262001090576200108f620018a0565b5b8135620010a284826020860162000f87565b91505092915050565b600060808284031215620010c457620010c3620018a5565b5b620010d060806200160c565b90506000620010e28482850162000fe9565b6000830152506020620010f88482850162001061565b60208301525060406200110e8482850162001061565b6040830152506060620011248482850162001061565b60608301525092915050565b600060208284031215620011495762001148620018b9565b5b6000620011598482850162000fd2565b91505092915050565b600080600080600060a08688031215620011815762001180620018b9565b5b6000620011918882890162000fd2565b9550506020620011a48882890162000fd2565b9450506040620011b7888289016200104a565b9350506060620011ca888289016200104a565b9250506080620011dd888289016200104a565b9150509295509295909350565b60008060408385031215620012045762001203620018b9565b5b6000620012148582860162000fd2565b925050602083013567ffffffffffffffff811115620012385762001237620018b4565b5b620012468582860162001078565b9150509250929050565b600060208284031215620012695762001268620018b9565b5b600082015167ffffffffffffffff8111156200128a5762001289620018b4565b5b620012988482850162001000565b91505092915050565b600060208284031215620012ba57620012b9620018b9565b5b6000620012ca8482850162001033565b91505092915050565b6000620012e183836200143b565b60808301905092915050565b620012f881620016ef565b82525050565b6200130981620016ef565b82525050565b60006200131c82620016aa565b620013288185620016cd565b935062001335836200169a565b8060005b838110156200136c578151620013508882620012d3565b97506200135d83620016c0565b92505060018101905062001339565b5085935050505092915050565b62001384816200170f565b82525050565b62001395816200170f565b82525050565b620013a6816200174e565b82525050565b6000620013b982620016b5565b620013c58185620016de565b9350620013d781856020860162001771565b620013e281620018be565b840191505092915050565b6000620013fc601f83620016de565b91506200140982620018cf565b602082019050919050565b600062001423600f83620016de565b91506200143082620018f8565b602082019050919050565b608082016000820151620014536000850182620012ed565b50602082015162001468602085018262001379565b5060408201516200147d604085018262001379565b50606082015162001492606085018262001379565b50505050565b6000602082019050620014af6000830184620012fe565b92915050565b6000604082019050620014cc6000830185620012fe565b620014db6020830184620012fe565b9392505050565b6000608082019050620014f96000830187620012fe565b6200150860208301866200138a565b6200151760408301856200138a565b6200152660608301846200138a565b95945050505050565b6000604082019050620015466000830185620012fe565b81810360208301526200155a8184620013ac565b90509392505050565b600060208201905081810360008301526200157f81846200130f565b905092915050565b60006020820190506200159e60008301846200139b565b92915050565b60006020820190508181036000830152620015c08184620013ac565b905092915050565b60006020820190508181036000830152620015e381620013ed565b9050919050565b60006020820190508181036000830152620016058162001414565b9050919050565b6000620016186200162b565b9050620016268282620017dd565b919050565b6000604051905090565b600067ffffffffffffffff82111562001653576200165262001871565b5b602082029050602081019050919050565b600067ffffffffffffffff82111562001682576200168162001871565b5b6200168d82620018be565b9050602081019050919050565b6000819050602082019050919050565b600081519050919050565b600081519050919050565b6000602082019050919050565b600082825260208201905092915050565b600082825260208201905092915050565b6000620016fc826200172e565b9050919050565b60008115159050919050565b6000819050919050565b6000819050620017298262001921565b919050565b600073ffffffffffffffffffffffffffffffffffffffff82169050919050565b60006200175b8262001719565b9050919050565b82818337600083830152505050565b60005b838110156200179157808201518184015260208101905062001774565b83811115620017a1576000848401525b50505050565b60006002820490506001821680620017c057607f821691505b60208210811415620017d757620017d662001842565b5b50919050565b620017e882620018be565b810181811067ffffffffffffffff821117156200180a576200180962001871565b5b80604052505050565b7f4e487b7100000000000000000000000000000000000000000000000000000000600052602160045260246000fd5b7f4e487b7100000000000000000000000000000000000000000000000000000000600052602260045260246000fd5b7f4e487b7100000000000000000000000000000000000000000000000000000000600052604160045260246000fd5b600080fd5b600080fd5b600080fd5b600080fd5b600080fd5b600080fd5b6000601f19601f8301169050919050565b7f4f6e6c79206f776e6572206f72206973737565722063616e2061636365737300600082015250565b7f496e76616c696420616464726573730000000000000000000000000000000000600082015250565b6002811062001935576200193462001813565b5b50565b6200194381620016ef565b81146200194f57600080fd5b50565b6200195d8162001703565b81146200196957600080fd5b50565b62001977816200170f565b81146200198357600080fd5b5056fe608060405234801561001057600080fd5b50604051610b15380380610b15833981810160405281019061003291906100fd565b600073ffffffffffffffffffffffffffffffffffffffff168173ffffffffffffffffffffffffffffffffffffffff1614156100a2576040517f08c379a00000000000000000000000000000000000000000000000000000000081526004016100999061014d565b60405180910390fd5b806000806101000a81548173ffffffffffffffffffffffffffffffffffffffff021916908373ffffffffffffffffffffffffffffffffffffffff160217905550506101f5565b6000815190506100f7816101de565b92915050565b600060208284031215610113576101126101b0565b5b6000610121848285016100e8565b91505092915050565b600061013760168361016d565b9150610142826101b5565b602082019050919050565b600060208201905081810360008301526101668161012a565b9050919050565b600082825260208201905092915050565b600061018982610190565b9050919050565b600073ffffffffffffffffffffffffffffffffffffffff82169050919050565b600080fd5b7f496e76616c696420697373756572206164647265737300000000000000000000600082015250565b6101e78161017e565b81146101f257600080fd5b50565b610911806102046000396000f3fe608060405234801561001057600080fd5b506004361061004c5760003560e01c8063263b81c914610051578063873aaadc1461006f578063aaa86b081461008d578063cd9d0579146100ab575b600080fd5b6100596100c7565b6040516100669190610648565b60405180910390f35b6100776101af565b6040516100849190610648565b60405180910390f35b6100956101d0565b6040516100a29190610626565b60405180910390f35b6100c560048036038101906100c0919061047a565b610334565b005b600060025460018054905011610112576040517f08c379a000000000000000000000000000000000000000000000000000000000815260040161010990610663565b60405180910390fd5b7fa99aae1d4f5b99a43c46496c155f3e526212f16994121b91ff5ff2d24e66914760016002548154811061014957610148610821565b5b906000526020600020906004020160000160009054906101000a900473ffffffffffffffffffffffffffffffffffffffff16604051610188919061060b565b60405180910390a1600260008154809291906101a3906107a9565b91905055506001905090565b6000600260008154809291906101c4906107a9565b91905055506000905090565b606060006002546001805490506101e79190610723565b905060008167ffffffffffffffff81111561020557610204610850565b5b60405190808252806020026020018201604052801561023e57816020015b61022b610409565b8152602001906001900390816102235790505b50905060005b8281101561032b5760018160025461025c91906106cd565b8154811061026d5761026c610821565b5b90600052602060002090600402016040518060800160405290816000820160009054906101000a900473ffffffffffffffffffffffffffffffffffffffff1673ffffffffffffffffffffffffffffffffffffffff1673ffffffffffffffffffffffffffffffffffffffff168152602001600182015481526020016002820154815260200160038201548152505082828151811061030d5761030c610821565b5b60200260200101819052508080610323906107a9565b915050610244565b50809250505090565b600060405180608001604052808673ffffffffffffffffffffffffffffffffffffffff168152602001858152602001848152602001838152509050600181908060018154018082558091505060019003906000526020600020906004020160009091909190915060008201518160000160006101000a81548173ffffffffffffffffffffffffffffffffffffffff021916908373ffffffffffffffffffffffffffffffffffffffff16021790555060208201518160010155604082015181600201556060820151816003015550505050505050565b6040518060800160405280600073ffffffffffffffffffffffffffffffffffffffff1681526020016000801916815260200160008019168152602001600080191681525090565b60008135905061045f816108ad565b92915050565b600081359050610474816108c4565b92915050565b600080600080608085870312156104945761049361087f565b5b60006104a287828801610450565b94505060206104b387828801610465565b93505060406104c487828801610465565b92505060606104d587828801610465565b91505092959194509250565b60006104ed83836105b6565b60808301905092915050565b61050281610757565b82525050565b61051181610757565b82525050565b600061052282610693565b61052c81856106ab565b935061053783610683565b8060005b8381101561056857815161054f88826104e1565b975061055a8361069e565b92505060018101905061053b565b5085935050505092915050565b61057e81610769565b82525050565b61058d81610775565b82525050565b60006105a06016836106bc565b91506105ab82610884565b602082019050919050565b6080820160008201516105cc60008501826104f9565b5060208201516105df6020850182610584565b5060408201516105f26040850182610584565b5060608201516106056060850182610584565b50505050565b60006020820190506106206000830184610508565b92915050565b600060208201905081810360008301526106408184610517565b905092915050565b600060208201905061065d6000830184610575565b92915050565b6000602082019050818103600083015261067c81610593565b9050919050565b6000819050602082019050919050565b600081519050919050565b6000602082019050919050565b600082825260208201905092915050565b600082825260208201905092915050565b60006106d88261079f565b91506106e38361079f565b9250827fffffffffffffffffffffffffffffffffffffffffffffffffffffffffffffffff03821115610718576107176107f2565b5b828201905092915050565b600061072e8261079f565b91506107398361079f565b92508282101561074c5761074b6107f2565b5b828203905092915050565b60006107628261077f565b9050919050565b60008115159050919050565b6000819050919050565b600073ffffffffffffffffffffffffffffffffffffffff82169050919050565b6000819050919050565b60006107b48261079f565b91507fffffffffffffffffffffffffffffffffffffffffffffffffffffffffffffffff8214156107e7576107e66107f2565b5b600182019050919050565b7f4e487b7100000000000000000000000000000000000000000000000000000000600052601160045260246000fd5b7f4e487b7100000000000000000000000000000000000000000000000000000000600052603260045260246000fd5b7f4e487b7100000000000000000000000000000000000000000000000000000000600052604160045260246000fd5b600080fd5b7f4e6f20726571756573747320746f20617070726f766500000000000000000000600082015250565b6108b681610757565b81146108c157600080fd5b50565b6108cd81610775565b81146108d857600080fd5b5056fea2646970667358221220412c79545296f4ea1cb0e266477fd56684be1babb7ac3539cab6619c19df62c364736f6c63430008070033a2646970667358221220655abb012153ee90a3854de32a3e6d9849e37e9debf46d4f638fc299649e424764736f6c63430008070033",
  "devdoc": {
    "kind": "dev",
    "methods": {},
    "version": 1
  },
  "userdoc": {
    "kind": "user",
    "methods": {},
    "version": 1
  },
  "storageLayout": {
    "storage": [
      {
        "astId": 13,
        "contract": "contracts/DIdentity.sol:DIdentity",
        "label": "owner",
        "offset": 0,
        "slot": "0",
        "type": "t_address"
      },
      {
        "astId": 21,
        "contract": "contracts/DIdentity.sol:DIdentity",
        "label": "roles",
        "offset": 0,
        "slot": "1",
        "type": "t_mapping(t_address,t_enum(Roles)16)"
      },
      {
        "astId": 25,
        "contract": "contracts/DIdentity.sol:DIdentity",
        "label": "rootHash",
        "offset": 0,
        "slot": "2",
        "type": "t_mapping(t_address,t_string_storage)"
      },
      {
        "astId": 30,
        "contract": "contracts/DIdentity.sol:DIdentity",
        "label": "issuers",
        "offset": 0,
        "slot": "3",
        "type": "t_mapping(t_address,t_contract(Issuer)437)"
      }
    ],
    "types": {
      "t_address": {
        "encoding": "inplace",
        "label": "address",
        "numberOfBytes": "20"
      },
      "t_contract(Issuer)437": {
        "encoding": "inplace",
        "label": "contract Issuer",
        "numberOfBytes": "20"
      },
      "t_enum(Roles)16": {
        "encoding": "inplace",
        "label": "enum DIdentity.Roles",
        "numberOfBytes": "1"
      },
      "t_mapping(t_address,t_contract(Issuer)437)": {
        "encoding": "mapping",
        "key": "t_address",
        "label": "mapping(address => contract Issuer)",
        "numberOfBytes": "32",
        "value": "t_contract(Issuer)437"
      },
      "t_mapping(t_address,t_enum(Roles)16)": {
        "encoding": "mapping",
        "key": "t_address",
        "label": "mapping(address => enum DIdentity.Roles)",
        "numberOfBytes": "32",
        "value": "t_enum(Roles)16"
      },
      "t_mapping(t_address,t_string_storage)": {
        "encoding": "mapping",
        "key": "t_address",
        "label": "mapping(address => string)",
        "numberOfBytes": "32",
        "value": "t_string_storage"
      },
      "t_string_storage": {
        "encoding": "bytes",
        "label": "string",
        "numberOfBytes": "32"
      }
    }
  }
}