{
  "address": "0x920d35CE4468736324F98d5f7902d9B751087E41",
  "abi": [
    {
      "inputs": [
        {
          "internalType": "address",
          "name": "_issuer",
          "type": "address"
        }
      ],
      "stateMutability": "nonpayable",
      "type": "constructor"
    },
    {
      "anonymous": false,
      "inputs": [
        {
          "indexed": false,
          "internalType": "address",
          "name": "requester",
          "type": "address"
        }
      ],
      "name": "UpdateApproved",
      "type": "event"
    },
    {
      "inputs": [
        {
          "internalType": "address",
          "name": "_requester",
          "type": "address"
        },
        {
          "internalType": "bytes32",
          "name": "_property",
          "type": "bytes32"
        },
        {
          "internalType": "bytes32",
          "name": "_val",
          "type": "bytes32"
        },
        {
          "internalType": "bytes32",
          "name": "_currentVal",
          "type": "bytes32"
        }
      ],
      "name": "addRequest",
      "outputs": [],
      "stateMutability": "nonpayable",
      "type": "function"
    },
    {
      "inputs": [],
      "name": "approveRequest",
      "outputs": [
        {
          "internalType": "bool",
          "name": "",
          "type": "bool"
        }
      ],
      "stateMutability": "nonpayable",
      "type": "function"
    },
    {
      "inputs": [],
      "name": "declineRequest",
      "outputs": [
        {
          "internalType": "bool",
          "name": "",
          "type": "bool"
        }
      ],
      "stateMutability": "nonpayable",
      "type": "function"
    },
    {
      "inputs": [],
      "name": "getRequestHistory",
      "outputs": [
        {
          "components": [
            {
              "internalType": "address",
              "name": "requester",
              "type": "address"
            },
            {
              "internalType": "bytes32",
              "name": "property",
              "type": "bytes32"
            },
            {
              "internalType": "bytes32",
              "name": "val",
              "type": "bytes32"
            },
            {
              "internalType": "bytes32",
              "name": "currentVal",
              "type": "bytes32"
            }
          ],
          "internalType": "struct Issuer.Details[]",
          "name": "",
          "type": "tuple[]"
        }
      ],
      "stateMutability": "view",
      "type": "function"
    }
  ],
  "transactionHash": "0xa3c24bf4cb1f801da65feb0b2b0617757b796833e0c8448883f9bec6ff2d926d",
  "args": [
    "0x07b1DAf7b72dd9E0F6D57e4B9C8cFC00719096f9"
  ],
  "numDeployments": 2,
  "solcInputHash": "1bbe521d4d5dc9608933ec28b259c475",
  "bytecode": "0x608060405234801561001057600080fd5b50604051610b15380380610b15833981810160405281019061003291906100fd565b600073ffffffffffffffffffffffffffffffffffffffff168173ffffffffffffffffffffffffffffffffffffffff1614156100a2576040517f08c379a00000000000000000000000000000000000000000000000000000000081526004016100999061014d565b60405180910390fd5b806000806101000a81548173ffffffffffffffffffffffffffffffffffffffff021916908373ffffffffffffffffffffffffffffffffffffffff160217905550506101f5565b6000815190506100f7816101de565b92915050565b600060208284031215610113576101126101b0565b5b6000610121848285016100e8565b91505092915050565b600061013760168361016d565b9150610142826101b5565b602082019050919050565b600060208201905081810360008301526101668161012a565b9050919050565b600082825260208201905092915050565b600061018982610190565b9050919050565b600073ffffffffffffffffffffffffffffffffffffffff82169050919050565b600080fd5b7f496e76616c696420697373756572206164647265737300000000000000000000600082015250565b6101e78161017e565b81146101f257600080fd5b50565b610911806102046000396000f3fe608060405234801561001057600080fd5b506004361061004c5760003560e01c8063263b81c914610051578063873aaadc1461006f578063aaa86b081461008d578063cd9d0579146100ab575b600080fd5b6100596100c7565b6040516100669190610648565b60405180910390f35b6100776101af565b6040516100849190610648565b60405180910390f35b6100956101d0565b6040516100a29190610626565b60405180910390f35b6100c560048036038101906100c0919061047a565b610334565b005b600060025460018054905011610112576040517f08c379a000000000000000000000000000000000000000000000000000000000815260040161010990610663565b60405180910390fd5b7fa99aae1d4f5b99a43c46496c155f3e526212f16994121b91ff5ff2d24e66914760016002548154811061014957610148610821565b5b906000526020600020906004020160000160009054906101000a900473ffffffffffffffffffffffffffffffffffffffff16604051610188919061060b565b60405180910390a1600260008154809291906101a3906107a9565b91905055506001905090565b6000600260008154809291906101c4906107a9565b91905055506000905090565b606060006002546001805490506101e79190610723565b905060008167ffffffffffffffff81111561020557610204610850565b5b60405190808252806020026020018201604052801561023e57816020015b61022b610409565b8152602001906001900390816102235790505b50905060005b8281101561032b5760018160025461025c91906106cd565b8154811061026d5761026c610821565b5b90600052602060002090600402016040518060800160405290816000820160009054906101000a900473ffffffffffffffffffffffffffffffffffffffff1673ffffffffffffffffffffffffffffffffffffffff1673ffffffffffffffffffffffffffffffffffffffff168152602001600182015481526020016002820154815260200160038201548152505082828151811061030d5761030c610821565b5b60200260200101819052508080610323906107a9565b915050610244565b50809250505090565b600060405180608001604052808673ffffffffffffffffffffffffffffffffffffffff168152602001858152602001848152602001838152509050600181908060018154018082558091505060019003906000526020600020906004020160009091909190915060008201518160000160006101000a81548173ffffffffffffffffffffffffffffffffffffffff021916908373ffffffffffffffffffffffffffffffffffffffff16021790555060208201518160010155604082015181600201556060820151816003015550505050505050565b6040518060800160405280600073ffffffffffffffffffffffffffffffffffffffff1681526020016000801916815260200160008019168152602001600080191681525090565b60008135905061045f816108ad565b92915050565b600081359050610474816108c4565b92915050565b600080600080608085870312156104945761049361087f565b5b60006104a287828801610450565b94505060206104b387828801610465565b93505060406104c487828801610465565b92505060606104d587828801610465565b91505092959194509250565b60006104ed83836105b6565b60808301905092915050565b61050281610757565b82525050565b61051181610757565b82525050565b600061052282610693565b61052c81856106ab565b935061053783610683565b8060005b8381101561056857815161054f88826104e1565b975061055a8361069e565b92505060018101905061053b565b5085935050505092915050565b61057e81610769565b82525050565b61058d81610775565b82525050565b60006105a06016836106bc565b91506105ab82610884565b602082019050919050565b6080820160008201516105cc60008501826104f9565b5060208201516105df6020850182610584565b5060408201516105f26040850182610584565b5060608201516106056060850182610584565b50505050565b60006020820190506106206000830184610508565b92915050565b600060208201905081810360008301526106408184610517565b905092915050565b600060208201905061065d6000830184610575565b92915050565b6000602082019050818103600083015261067c81610593565b9050919050565b6000819050602082019050919050565b600081519050919050565b6000602082019050919050565b600082825260208201905092915050565b600082825260208201905092915050565b60006106d88261079f565b91506106e38361079f565b9250827fffffffffffffffffffffffffffffffffffffffffffffffffffffffffffffffff03821115610718576107176107f2565b5b828201905092915050565b600061072e8261079f565b91506107398361079f565b92508282101561074c5761074b6107f2565b5b828203905092915050565b60006107628261077f565b9050919050565b60008115159050919050565b6000819050919050565b600073ffffffffffffffffffffffffffffffffffffffff82169050919050565b6000819050919050565b60006107b48261079f565b91507fffffffffffffffffffffffffffffffffffffffffffffffffffffffffffffffff8214156107e7576107e66107f2565b5b600182019050919050565b7f4e487b7100000000000000000000000000000000000000000000000000000000600052601160045260246000fd5b7f4e487b7100000000000000000000000000000000000000000000000000000000600052603260045260246000fd5b7f4e487b7100000000000000000000000000000000000000000000000000000000600052604160045260246000fd5b600080fd5b7f4e6f20726571756573747320746f20617070726f766500000000000000000000600082015250565b6108b681610757565b81146108c157600080fd5b50565b6108cd81610775565b81146108d857600080fd5b5056fea2646970667358221220412c79545296f4ea1cb0e266477fd56684be1babb7ac3539cab6619c19df62c364736f6c63430008070033",
  "devdoc": {
    "kind": "dev",
    "methods": {},
    "version": 1
  },
  "userdoc": {
    "kind": "user",
    "methods": {},
    "version": 1
  },
  "storageLayout": {
    "storage": [
      {
        "astId": 281,
        "contract": "contracts/Issuer.sol:Issuer",
        "label": "issuer",
        "offset": 0,
        "slot": "0",
        "type": "t_address"
      },
      {
        "astId": 294,
        "contract": "contracts/Issuer.sol:Issuer",
        "label": "historyOfRequests",
        "offset": 0,
        "slot": "1",
        "type": "t_array(t_struct(Details)290_storage)dyn_storage"
      },
      {
        "astId": 296,
        "contract": "contracts/Issuer.sol:Issuer",
        "label": "startIndex",
        "offset": 0,
        "slot": "2",
        "type": "t_uint256"
      }
    ],
    "types": {
      "t_address": {
        "encoding": "inplace",
        "label": "address",
        "numberOfBytes": "20"
      },
      "t_array(t_struct(Details)290_storage)dyn_storage": {
        "base": "t_struct(Details)290_storage",
        "encoding": "dynamic_array",
        "label": "struct Issuer.Details[]",
        "numberOfBytes": "32"
      },
      "t_bytes32": {
        "encoding": "inplace",
        "label": "bytes32",
        "numberOfBytes": "32"
      },
      "t_struct(Details)290_storage": {
        "encoding": "inplace",
        "label": "struct Issuer.Details",
        "members": [
          {
            "astId": 283,
            "contract": "contracts/Issuer.sol:Issuer",
            "label": "requester",
            "offset": 0,
            "slot": "0",
            "type": "t_address"
          },
          {
            "astId": 285,
            "contract": "contracts/Issuer.sol:Issuer",
            "label": "property",
            "offset": 0,
            "slot": "1",
            "type": "t_bytes32"
          },
          {
            "astId": 287,
            "contract": "contracts/Issuer.sol:Issuer",
            "label": "val",
            "offset": 0,
            "slot": "2",
            "type": "t_bytes32"
          },
          {
            "astId": 289,
            "contract": "contracts/Issuer.sol:Issuer",
            "label": "currentVal",
            "offset": 0,
            "slot": "3",
            "type": "t_bytes32"
          }
        ],
        "numberOfBytes": "128"
      },
      "t_uint256": {
        "encoding": "inplace",
        "label": "uint256",
        "numberOfBytes": "32"
      }
    }
  }
}